{
  "contractName": "Functions",
  "abi": [
    {
      "constant": true,
      "inputs": [
        {
          "name": "N",
          "type": "uint256"
        },
        {
          "name": "u",
          "type": "uint256"
        },
        {
          "name": "arrW",
          "type": "uint256[]"
        }
      ],
      "name": "AccumuGen",
      "outputs": [
        {
          "name": "",
          "type": "uint256"
        }
      ],
      "payable": false,
      "stateMutability": "pure",
      "type": "function"
    },
    {
      "constant": true,
      "inputs": [
        {
          "name": "N",
          "type": "uint256"
        },
        {
          "name": "u",
          "type": "uint256"
        },
        {
          "name": "arrW",
          "type": "uint256[]"
        }
      ],
      "name": "WitGen",
      "outputs": [
        {
          "name": "",
          "type": "uint256"
        }
      ],
      "payable": false,
      "stateMutability": "pure",
      "type": "function"
    },
    {
      "constant": true,
      "inputs": [
        {
          "name": "N",
          "type": "uint256"
        },
        {
          "name": "x",
          "type": "uint256"
        },
        {
          "name": "wit",
          "type": "uint256"
        },
        {
          "name": "A",
          "type": "uint256"
        }
      ],
      "name": "AccVerify",
      "outputs": [
        {
          "name": "",
          "type": "bool"
        }
      ],
      "payable": false,
      "stateMutability": "pure",
      "type": "function"
    }
  ],
  "bytecode": "0x608060405234801561001057600080fd5b50610393806100206000396000f3fe608060405234801561001057600080fd5b506004361061005e576000357c0100000000000000000000000000000000000000000000000000000000900480631194d12a14610063578063504b137414610143578063cdd0bc06146101a7575b600080fd5b61012d6004803603606081101561007957600080fd5b810190808035906020019092919080359060200190929190803590602001906401000000008111156100aa57600080fd5b8201836020820111156100bc57600080fd5b803590602001918460208302840111640100000000831117156100de57600080fd5b919080806020026020016040519081016040528093929190818152602001838360200280828437600081840152601f19601f820116905080830192505050505050509192919290505050610287565b6040518082815260200191505060405180910390f35b61018d6004803603608081101561015957600080fd5b81019080803590602001909291908035906020019092919080359060200190929190803590602001909291905050506102df565b604051808215151515815260200191505060405180910390f35b610271600480360360608110156101bd57600080fd5b810190808035906020019092919080359060200190929190803590602001906401000000008111156101ee57600080fd5b82018360208201111561020057600080fd5b8035906020019184602083028401116401000000008311171561022257600080fd5b919080806020026020016040519081016040528093929190818152602001838360200280828437600081840152601f19601f820116905080830192505050505050509192919290505050610312565b6040518082815260200191505060405180910390f35b60008083905060008090505b60018451038110156102d3578584828151811015156102ae57fe5b90602001906020020151830a8115156102c357fe5b0691508080600101915050610293565b50809150509392505050565b6000808585850a8115156102ef57fe5b0690508083141561030457600191505061030a565b60009150505b949350505050565b60008083905060008090505b835181101561035b5785848281518110151561033657fe5b90602001906020020151830a81151561034b57fe5b069150808060010191505061031e565b5080915050939250505056fea165627a7a72305820a2f6a0f6c73d510ac7d75a710967bd4d3f9f6f17b9b1093366918a5ed920b1080029",
  "source": "pragma solidity >=0.4.24 <=0.7.5;\r\n\r\ncontract Functions{\r\n     // 快速幂取余算法\r\n    \r\n    function AccumuGen(uint N, uint u, uint[] memory arrW) pure public returns (uint) {\r\n    uint A = u;\r\n    for (uint i=0; i<arrW.length; i++){\r\n        A = (A**arrW[i])%N;\r\n    }\r\n    return A;\r\n    }\r\n    \r\n    function WitGen(uint N, uint u, uint[] memory arrW) pure public returns (uint) {\r\n    uint wit=u;\r\n    for (uint i=0; i<arrW.length-1; i++){\r\n            wit = (wit**arrW[i])%N;\r\n            }\r\n    return wit;\r\n    }\r\n    \r\n    function AccVerify(uint N, uint x, uint wit, uint A) pure public returns (bool){\r\n        uint A_;\r\n        A_ = (wit**x)%N;\r\n        if (A==A_){\r\n            return true;\r\n        }\r\n        else\r\n            return false;\r\n    }\r\n    \r\n}\r\n",
  "sourcePath": "C:\\Users\\noodless\\PaperTest\\contracts\\Functions.sol",
  "compiler": {
    "name": "solc",
    "version": "0.5.4+commit.9549d8ff.Emscripten.clang"
  },
  "schemaVersion": "3.4.6",
  "updatedAt": "2022-04-20T02:01:04.651Z",
  "networkType": "ethereum",
  "devdoc": {
    "methods": {}
  },
  "userdoc": {
    "methods": {}
  }
}